{
  "address": "0x5FbDB2315678afecb367f032d93F642f64180aa3",
  "abi": [
    {
      "inputs": [
        {
          "internalType": "address",
          "name": "add",
          "type": "address"
        }
      ],
      "name": "addressToBytes32",
      "outputs": [
        {
          "internalType": "bytes32",
          "name": "",
          "type": "bytes32"
        }
      ],
      "stateMutability": "pure",
      "type": "function"
    },
    {
      "inputs": [
        {
          "internalType": "address",
          "name": "a",
          "type": "address"
        }
      ],
      "name": "addressToUint256",
      "outputs": [
        {
          "internalType": "uint256",
          "name": "",
          "type": "uint256"
        }
      ],
      "stateMutability": "pure",
      "type": "function"
    },
    {
      "inputs": [
        {
          "internalType": "uint256",
          "name": "num",
          "type": "uint256"
        }
      ],
      "name": "uint256ToBytes32",
      "outputs": [
        {
          "internalType": "bytes32",
          "name": "",
          "type": "bytes32"
        }
      ],
      "stateMutability": "pure",
      "type": "function"
    }
  ],
  "transactionHash": "0xa3405d6be7e5ad1f26ba7344b5b888ab958d6844978c2ba9dda69d94e2ee2445",
  "args": [],
  "numDeployments": 1,
  "solcInputHash": "430fa6037794d8756d5e2a40af527094",
  "bytecode": "0x610475610053600b82828239805160001a607314610046577f4e487b7100000000000000000000000000000000000000000000000000000000600052600060045260246000fd5b30600052607381538281f3fe730000000000000000000000000000000000000000301460806040526004361061004b5760003560e01c80635edb2fb314610050578063758fb9551461008057806382c947b7146100b0575b600080fd5b61006a60048036038101906100659190610240565b6100e0565b60405161007791906102b9565b60405180910390f35b61009a60048036038101906100959190610217565b6101b3565b6040516100a791906102d4565b60405180910390f35b6100ca60048036038101906100c59190610217565b6101d3565b6040516100d791906102b9565b60405180910390f35b600080826040516020016100f4919061029e565b6040516020818303038152906040529050600080600090505b60208110156101a85760088161012391906102ef565b60ff60f81b848381518110610161577f4e487b7100000000000000000000000000000000000000000000000000000000600052603260045260246000fd5b602001015160f81c60f81b167effffffffffffffffffffffffffffffffffffffffffffffffffffffffffffff1916901c8217915080806101a09061038f565b91505061010d565b508092505050919050565b60008173ffffffffffffffffffffffffffffffffffffffff169050919050565b60006101e66101e1836101b3565b6100e0565b9050919050565b6000813590506101fc81610411565b92915050565b60008135905061021181610428565b92915050565b60006020828403121561022957600080fd5b6000610237848285016101ed565b91505092915050565b60006020828403121561025257600080fd5b600061026084828501610202565b91505092915050565b6102728161035b565b82525050565b61028181610385565b82525050565b61029861029382610385565b6103d8565b82525050565b60006102aa8284610287565b60208201915081905092915050565b60006020820190506102ce6000830184610269565b92915050565b60006020820190506102e96000830184610278565b92915050565b60006102fa82610385565b915061030583610385565b9250817fffffffffffffffffffffffffffffffffffffffffffffffffffffffffffffffff048311821515161561033e5761033d6103e2565b5b828202905092915050565b600061035482610365565b9050919050565b6000819050919050565b600073ffffffffffffffffffffffffffffffffffffffff82169050919050565b6000819050919050565b600061039a82610385565b91507fffffffffffffffffffffffffffffffffffffffffffffffffffffffffffffffff8214156103cd576103cc6103e2565b5b600182019050919050565b6000819050919050565b7f4e487b7100000000000000000000000000000000000000000000000000000000600052601160045260246000fd5b61041a81610349565b811461042557600080fd5b50565b61043181610385565b811461043c57600080fd5b5056fea26469706673582212207c435b38241d3d64e388824205c3eadd196971a3e10fc41478b1ebd409a174f264736f6c63430008040033",
  "devdoc": {
    "kind": "dev",
    "methods": {},
    "version": 1
  },
  "userdoc": {
    "kind": "user",
    "methods": {},
    "version": 1
  },
  "storageLayout": {
    "storage": [],
    "types": null
  }
}