{
  "address": "0xe7f1725E7734CE288F8367e1Bb143E90bb3F0512",
  "abi": [
    {
      "inputs": [],
      "stateMutability": "nonpayable",
      "type": "constructor"
    },
    {
      "inputs": [],
      "name": "GoGame__GameIsOver",
      "type": "error"
    },
    {
      "inputs": [],
      "name": "GoGame__InvalidPlacing",
      "type": "error"
    },
    {
      "inputs": [],
      "name": "GoGame__IsNotYourTurn",
      "type": "error"
    },
    {
      "inputs": [],
      "name": "GoGame__PlayerDontHaveMatch",
      "type": "error"
    },
    {
      "anonymous": false,
      "inputs": [
        {
          "indexed": true,
          "internalType": "uint256",
          "name": "matchId",
          "type": "uint256"
        },
        {
          "indexed": false,
          "internalType": "address",
          "name": "player1",
          "type": "address"
        },
        {
          "indexed": false,
          "internalType": "address",
          "name": "player2",
          "type": "address"
        }
      ],
      "name": "FindMatch",
      "type": "event"
    },
    {
      "anonymous": false,
      "inputs": [
        {
          "indexed": true,
          "internalType": "uint256",
          "name": "matchId",
          "type": "uint256"
        },
        {
          "indexed": false,
          "internalType": "address",
          "name": "winner",
          "type": "address"
        }
      ],
      "name": "GameOver",
      "type": "event"
    },
    {
      "anonymous": false,
      "inputs": [
        {
          "indexed": true,
          "internalType": "uint256",
          "name": "matchId",
          "type": "uint256"
        }
      ],
      "name": "GameStateChange",
      "type": "event"
    },
    {
      "stateMutability": "nonpayable",
      "type": "fallback"
    },
    {
      "inputs": [
        {
          "internalType": "uint256",
          "name": "matchId",
          "type": "uint256"
        }
      ],
      "name": "BoardState",
      "outputs": [
        {
          "internalType": "enum GoGame.StoneType[361]",
          "name": "",
          "type": "uint8[361]"
        }
      ],
      "stateMutability": "view",
      "type": "function"
    },
    {
      "inputs": [
        {
          "internalType": "uint256",
          "name": "matchId",
          "type": "uint256"
        }
      ],
      "name": "GetGameState",
      "outputs": [
        {
          "components": [
            {
              "internalType": "enum GoGame.StoneType[361]",
              "name": "boardState",
              "type": "uint8[361]"
            },
            {
              "internalType": "enum GoGame.StoneType",
              "name": "turn",
              "type": "uint8"
            },
            {
              "internalType": "bool",
              "name": "isOver",
              "type": "bool"
            }
          ],
          "internalType": "struct GoGame.GameState",
          "name": "",
          "type": "tuple"
        }
      ],
      "stateMutability": "view",
      "type": "function"
    },
    {
      "inputs": [
        {
          "internalType": "uint256",
          "name": "matchId",
          "type": "uint256"
        }
      ],
      "name": "IsOver",
      "outputs": [
        {
          "internalType": "bool",
          "name": "",
          "type": "bool"
        }
      ],
      "stateMutability": "view",
      "type": "function"
    },
    {
      "inputs": [],
      "name": "MyPlayerState",
      "outputs": [
        {
          "components": [
            {
              "internalType": "enum GoGame.StoneType",
              "name": "stoneType",
              "type": "uint8"
            },
            {
              "internalType": "uint256",
              "name": "matchId",
              "type": "uint256"
            },
            {
              "internalType": "bool",
              "name": "inGame",
              "type": "bool"
            }
          ],
          "internalType": "struct GoGame.PlayerState",
          "name": "",
          "type": "tuple"
        }
      ],
      "stateMutability": "view",
      "type": "function"
    },
    {
      "inputs": [
        {
          "internalType": "uint8",
          "name": "x",
          "type": "uint8"
        },
        {
          "internalType": "uint8",
          "name": "y",
          "type": "uint8"
        },
        {
          "internalType": "bool",
          "name": "checkWin",
          "type": "bool"
        }
      ],
      "name": "PlaceStone",
      "outputs": [],
      "stateMutability": "nonpayable",
      "type": "function"
    },
    {
      "inputs": [
        {
          "internalType": "uint256",
          "name": "matchId",
          "type": "uint256"
        }
      ],
      "name": "WhosTurn",
      "outputs": [
        {
          "internalType": "enum GoGame.StoneType",
          "name": "",
          "type": "uint8"
        }
      ],
      "stateMutability": "view",
      "type": "function"
    },
    {
      "inputs": [],
      "name": "requestMatch",
      "outputs": [],
      "stateMutability": "nonpayable",
      "type": "function"
    }
  ],
  "transactionHash": "0xe3c6b395fb005b9264095e1282a472a1a364010c9df3a107f0f27c5c875636ae",
  "args": [],
  "numDeployments": 1,
  "solcInputHash": "f10a4296905cd9a2b8729d91bae68682",
  "bytecode": "0x60806040523480156200001157600080fd5b506200001c62000128565b6000604051806060016040528083815260200160028081111562000069577f4e487b7100000000000000000000000000000000000000000000000000000000600052602160045260246000fd5b8152602001600115158152509050806001600080815260200190815260200160002060008201518160000190610169620000a59291906200014c565b50602082015181600c0160006101000a81548160ff02191690836002811115620000f8577f4e487b7100000000000000000000000000000000000000000000000000000000600052602160045260246000fd5b0217905550604082015181600c0160016101000a81548160ff021916908315150217905550905050505062000243565b60405180612d20016040528061016990602082028036833780820191505090505090565b82610169601f01602090048101928215620002115791602002820160005b83821115620001e057835183826101000a81548160ff02191690836002811115620001be577f4e487b7100000000000000000000000000000000000000000000000000000000600052602160045260246000fd5b021790555092602001926001016020816000010492830192600103026200016a565b80156200020f5782816101000a81549060ff0219169055600101602081600001049283019260010302620001e0565b505b50905062000220919062000224565b5090565b5b808211156200023f57600081600090555060010162000225565b5090565b612c0a80620002536000396000f3fe608060405234801561001057600080fd5b50600436106100815760003560e01c8063929ce1e71161005b578063929ce1e7146100ee578063947d9de61461011e578063b40aea9c1461013c578063f27f91f41461015857610082565b806303a504a51461008457806317d537ab146100b457806356f39089146100be57610082565b5b005b61009e600480360381019061009991906123ff565b610188565b6040516100ab919061274c565b60405180910390f35b6100bc6101b5565b005b6100d860048036038101906100d391906123ff565b610414565b6040516100e59190612731565b60405180910390f35b610108600480360381019061010391906123ff565b610441565b6040516101159190612767565b60405180910390f35b6101266105b2565b6040516101339190612783565b60405180910390f35b61015660048036038101906101519190612428565b6106b5565b005b610172600480360381019061016d91906123ff565b611a77565b60405161017f9190612715565b60405180910390f35b600060016000838152602001908152602001600020600c0160009054906101000a900460ff169050919050565b60008080548060200260200160405190810160405280929190818152602001828054801561023857602002820191906000526020600020905b8160009054906101000a900473ffffffffffffffffffffffffffffffffffffffff1673ffffffffffffffffffffffffffffffffffffffff16815260200190600101908083116101ee575b505050505090506000815114156102b1576000339080600181540180825580915050600190039060005260206000200160009091909190916101000a81548173ffffffffffffffffffffffffffffffffffffffff021916908373ffffffffffffffffffffffffffffffffffffffff160217905550610410565b60018151141561040f573373ffffffffffffffffffffffffffffffffffffffff168160008151811061030c577f4e487b7100000000000000000000000000000000000000000000000000000000600052603260045260246000fd5b602002602001015173ffffffffffffffffffffffffffffffffffffffff1614156103365750610412565b600061038382600081518110610375577f4e487b7100000000000000000000000000000000000000000000000000000000600052603260045260246000fd5b602002602001015133611b35565b9050807fc8180a8ee09fc569927768d3d1f03623b0a7285e443513d6085410c1a36436a3836000815181106103e1577f4e487b7100000000000000000000000000000000000000000000000000000000600052603260045260246000fd5b6020026020010151336040516103f89291906126ec565b60405180910390a260008061040d9190612171565b505b5b505b565b600060016000838152602001908152602001600020600c0160019054906101000a900460ff169050919050565b610449612192565b60016000838152602001908152602001600020604051806060016040529081600082016101698060200260405190810160405280929190826101698015610500576020028201916000905b82829054906101000a900460ff1660028111156104da577f4e487b7100000000000000000000000000000000000000000000000000000000600052602160045260246000fd5b815260200190600101906020826000010492830192600103820291508084116104945790505b50505050508152602001600c820160009054906101000a900460ff166002811115610554577f4e487b7100000000000000000000000000000000000000000000000000000000600052602160045260246000fd5b600281111561058c577f4e487b7100000000000000000000000000000000000000000000000000000000600052602160045260246000fd5b8152602001600c820160019054906101000a900460ff1615151515815250509050919050565b6105ba6121f3565b600260003373ffffffffffffffffffffffffffffffffffffffff1673ffffffffffffffffffffffffffffffffffffffff1681526020019081526020016000206040518060600160405290816000820160009054906101000a900460ff16600281111561064f577f4e487b7100000000000000000000000000000000000000000000000000000000600052602160045260246000fd5b6002811115610687577f4e487b7100000000000000000000000000000000000000000000000000000000600052602160045260246000fd5b8152602001600182015481526020016002820160009054906101000a900460ff161515151581525050905090565b6000600260003373ffffffffffffffffffffffffffffffffffffffff1673ffffffffffffffffffffffffffffffffffffffff1681526020019081526020016000206040518060600160405290816000820160009054906101000a900460ff16600281111561074c577f4e487b7100000000000000000000000000000000000000000000000000000000600052602160045260246000fd5b6002811115610784577f4e487b7100000000000000000000000000000000000000000000000000000000600052602160045260246000fd5b8152602001600182015481526020016002820160009054906101000a900460ff16151515158152505090506000816020015114156107ee576040517f0e9a606400000000000000000000000000000000000000000000000000000000815260040160405180910390fd5b600060016000836020015181526020019081526020016000206040518060600160405290816000820161016980602002604051908101604052809291908261016980156108ab576020028201916000905b82829054906101000a900460ff166002811115610885577f4e487b7100000000000000000000000000000000000000000000000000000000600052602160045260246000fd5b8152602001906001019060208260000104928301926001038202915080841161083f5790505b50505050508152602001600c820160009054906101000a900460ff1660028111156108ff577f4e487b7100000000000000000000000000000000000000000000000000000000600052602160045260246000fd5b6002811115610937577f4e487b7100000000000000000000000000000000000000000000000000000000600052602160045260246000fd5b8152602001600c820160019054906101000a900460ff1615151515815250509050806040015115610994576040517f52c9b99c00000000000000000000000000000000000000000000000000000000815260040160405180910390fd5b816000015160028111156109d1577f4e487b7100000000000000000000000000000000000000000000000000000000600052602160045260246000fd5b81602001516002811115610a0e577f4e487b7100000000000000000000000000000000000000000000000000000000600052602160045260246000fd5b14610a45576040517f34cc6b6600000000000000000000000000000000000000000000000000000000815260040160405180910390fd5b60008560ff161080610a5b575060138560ff1610155b80610a78575060008460ff161080610a77575060138460ff1610155b5b80610b50575060006002811115610ab8577f4e487b7100000000000000000000000000000000000000000000000000000000600052602160045260246000fd5b8160000151601386610aca9190612928565b87610ad591906128b5565b60ff166101698110610b10577f4e487b7100000000000000000000000000000000000000000000000000000000600052603260045260246000fd5b60200201516002811115610b4d577f4e487b7100000000000000000000000000000000000000000000000000000000600052602160045260246000fd5b14155b15610b87576040517f33984b1d00000000000000000000000000000000000000000000000000000000815260040160405180910390fd5b81600001516001600084602001518152602001908152602001600020600001601386610bb39190612928565b87610bbe91906128b5565b60ff166101698110610bf9577f4e487b7100000000000000000000000000000000000000000000000000000000600052603260045260246000fd5b602091828204019190066101000a81548160ff02191690836002811115610c49577f4e487b7100000000000000000000000000000000000000000000000000000000600052602160045260246000fd5b0217905550600280811115610c87577f4e487b7100000000000000000000000000000000000000000000000000000000600052602160045260246000fd5b82600001516002811115610cc4577f4e487b7100000000000000000000000000000000000000000000000000000000600052602160045260246000fd5b14610cd0576002610cd3565b60015b6001600084602001518152602001908152602001600020600c0160006101000a81548160ff02191690836002811115610d35577f4e487b7100000000000000000000000000000000000000000000000000000000600052602160045260246000fd5b021790555081602001517f453d704a20a3df7c9ae4cff3c0661ec7a0cd8494f38d14d9506ae7a402957fbd60405160405180910390a28215611a7057610d7961224e565b6000604051806101000160405280604051806080016040528060405180604001604052806000800b60000b8152602001600160000b60000b815250815260200160405180604001604052806000800b60000b8152602001600260000b60000b815250815260200160405180604001604052806000800b60000b8152602001600360000b60000b815250815260200160405180604001604052806000800b60000b8152602001600460000b60000b815250815250815260200160405180608001604052806040518060400160405280600160000b60000b8152602001600160000b60000b81525081526020016040518060400160405280600260000b60000b8152602001600260000b60000b81525081526020016040518060400160405280600360000b60000b8152602001600360000b60000b81525081526020016040518060400160405280600460000b60000b8152602001600460000b60000b815250815250815260200160405180608001604052806040518060400160405280600160000b60000b81526020016000800b60000b81525081526020016040518060400160405280600260000b60000b81526020016000800b60000b81525081526020016040518060400160405280600360000b60000b81526020016000800b60000b81525081526020016040518060400160405280600460000b60000b81526020016000800b60000b815250815250815260200160405180608001604052806040518060400160405280600160000b60000b81526020017fffffffffffffffffffffffffffffffffffffffffffffffffffffffffffffffff60000b60000b81525081526020016040518060400160405280600260000b60000b81526020017ffffffffffffffffffffffffffffffffffffffffffffffffffffffffffffffffe60000b60000b81525081526020016040518060400160405280600360000b60000b81526020017ffffffffffffffffffffffffffffffffffffffffffffffffffffffffffffffffd60000b60000b81525081526020016040518060400160405280600460000b60000b81526020017ffffffffffffffffffffffffffffffffffffffffffffffffffffffffffffffffc60000b60000b8152508152508152602001604051806080016040528060405180604001604052806000800b60000b81526020017fffffffffffffffffffffffffffffffffffffffffffffffffffffffffffffffff60000b60000b815250815260200160405180604001604052806000800b60000b81526020017ffffffffffffffffffffffffffffffffffffffffffffffffffffffffffffffffe60000b60000b815250815260200160405180604001604052806000800b60000b81526020017ffffffffffffffffffffffffffffffffffffffffffffffffffffffffffffffffd60000b60000b815250815260200160405180604001604052806000800b60000b81526020017ffffffffffffffffffffffffffffffffffffffffffffffffffffffffffffffffc60000b60000b8152508152508152602001604051806080016040528060405180604001604052807fffffffffffffffffffffffffffffffffffffffffffffffffffffffffffffffff60000b60000b81526020017fffffffffffffffffffffffffffffffffffffffffffffffffffffffffffffffff60000b60000b815250815260200160405180604001604052807ffffffffffffffffffffffffffffffffffffffffffffffffffffffffffffffffe60000b60000b81526020017ffffffffffffffffffffffffffffffffffffffffffffffffffffffffffffffffe60000b60000b815250815260200160405180604001604052807ffffffffffffffffffffffffffffffffffffffffffffffffffffffffffffffffd60000b60000b81526020017ffffffffffffffffffffffffffffffffffffffffffffffffffffffffffffffffd60000b60000b815250815260200160405180604001604052807ffffffffffffffffffffffffffffffffffffffffffffffffffffffffffffffffc60000b60000b81526020017ffffffffffffffffffffffffffffffffffffffffffffffffffffffffffffffffc60000b60000b8152508152508152602001604051806080016040528060405180604001604052807fffffffffffffffffffffffffffffffffffffffffffffffffffffffffffffffff60000b60000b81526020016000800b60000b815250815260200160405180604001604052807ffffffffffffffffffffffffffffffffffffffffffffffffffffffffffffffffe60000b60000b81526020016000800b60000b815250815260200160405180604001604052807ffffffffffffffffffffffffffffffffffffffffffffffffffffffffffffffffd60000b60000b81526020016000800b60000b815250815260200160405180604001604052807ffffffffffffffffffffffffffffffffffffffffffffffffffffffffffffffffc60000b60000b81526020016000800b60000b8152508152508152602001604051806080016040528060405180604001604052807fffffffffffffffffffffffffffffffffffffffffffffffffffffffffffffffff60000b60000b8152602001600160000b60000b815250815260200160405180604001604052807ffffffffffffffffffffffffffffffffffffffffffffffffffffffffffffffffe60000b60000b8152602001600260000b60000b815250815260200160405180604001604052807ffffffffffffffffffffffffffffffffffffffffffffffffffffffffffffffffd60000b60000b8152602001600360000b60000b815250815260200160405180604001604052807ffffffffffffffffffffffffffffffffffffffffffffffffffffffffffffffffc60000b60000b8152602001600460000b60000b815250815250815250905060005b60088160ff1610156119345760005b60048160ff161015611920576000838360ff166008811061162b577f4e487b7100000000000000000000000000000000000000000000000000000000600052603260045260246000fd5b60200201518260ff166004811061166b577f4e487b7100000000000000000000000000000000000000000000000000000000600052603260045260246000fd5b60200201516000600281106116a9577f4e487b7100000000000000000000000000000000000000000000000000000000600052603260045260246000fd5b60200201518a6116b99190612808565b90506000848460ff16600881106116f9577f4e487b7100000000000000000000000000000000000000000000000000000000600052603260045260246000fd5b60200201518360ff1660048110611739577f4e487b7100000000000000000000000000000000000000000000000000000000600052603260045260246000fd5b6020020151600160028110611777577f4e487b7100000000000000000000000000000000000000000000000000000000600052603260045260246000fd5b60200201518a6117879190612808565b905060008260000b128061179f575060138260000b12155b806117ad575060008160000b125b806117bc575060138160000b12155b156117c8575050611920565b87600001516002811115611805577f4e487b7100000000000000000000000000000000000000000000000000000000600052602160045260246000fd5b87600001518260ff16601361181a91906128ec565b8460ff16611828919061287d565b61ffff166101698110611864577f4e487b7100000000000000000000000000000000000000000000000000000000600052603260045260246000fd5b602002015160028111156118a1577f4e487b7100000000000000000000000000000000000000000000000000000000600052602160045260246000fd5b141561190457858460ff16600881106118e3577f4e487b7100000000000000000000000000000000000000000000000000000000600052603260045260246000fd5b6020020180518091906118f590612a72565b60ff1660ff168152505061190b565b5050611920565b5050808061191890612a72565b9150506115e1565b50808061192c90612a72565b9150506115d2565b5060005b60048160ff161015611a6c5760048360048361195491906128b5565b60ff166008811061198e577f4e487b7100000000000000000000000000000000000000000000000000000000600052603260045260246000fd5b6020020151848360ff16600881106119cf577f4e487b7100000000000000000000000000000000000000000000000000000000600052603260045260246000fd5b60200201516119de91906128b5565b60ff1610611a5957600180600087602001518152602001908152602001600020600c0160016101000a81548160ff02191690831515021790555084602001517f668ce4ca171dee87d4d9d2b5d3dc31963fe7fbe50b982064dddb0fb9d56aee8b33604051611a4c91906126d1565b60405180910390a2611a6c565b8080611a6490612a72565b915050611938565b5050505b5050505050565b611a7f612271565b600160008381526020019081526020016000206000016101698060200260405190810160405280929190826101698015611b29576020028201916000905b82829054906101000a900460ff166002811115611b03577f4e487b7100000000000000000000000000000000000000000000000000000000600052602160045260246000fd5b81526020019060010190602082600001049283019260010382029150808411611abd5790505b50505050509050919050565b6000611b3f612271565b60006040518060600160405280838152602001600280811115611b8b577f4e487b7100000000000000000000000000000000000000000000000000000000600052602160045260246000fd5b815260200160001515815250905080600160006003600081819054906101000a900463ffffffff16611bbc90612a45565b91906101000a81548163ffffffff021916908363ffffffff160217905563ffffffff16815260200190815260200160002060008201518160000190610169611c05929190612295565b50602082015181600c0160006101000a81548160ff02191690836002811115611c57577f4e487b7100000000000000000000000000000000000000000000000000000000600052602160045260246000fd5b0217905550604082015181600c0160016101000a81548160ff0219169083151502179055509050506000611c8b8686611f39565b9050600081611c9b576001611c9e565b60025b9050600082611cae576002611cb1565b60015b90506040518060600160405280836002811115611cf7577f4e487b7100000000000000000000000000000000000000000000000000000000600052602160045260246000fd5b8152602001600360009054906101000a900463ffffffff1663ffffffff16815260200160011515815250600260008a73ffffffffffffffffffffffffffffffffffffffff1673ffffffffffffffffffffffffffffffffffffffff16815260200190815260200160002060008201518160000160006101000a81548160ff02191690836002811115611db1577f4e487b7100000000000000000000000000000000000000000000000000000000600052602160045260246000fd5b02179055506020820151816001015560408201518160020160006101000a81548160ff0219169083151502179055509050506040518060600160405280826002811115611e27577f4e487b7100000000000000000000000000000000000000000000000000000000600052602160045260246000fd5b8152602001600360009054906101000a900463ffffffff1663ffffffff16815260200160011515815250600260008973ffffffffffffffffffffffffffffffffffffffff1673ffffffffffffffffffffffffffffffffffffffff16815260200190815260200160002060008201518160000160006101000a81548160ff02191690836002811115611ee1577f4e487b7100000000000000000000000000000000000000000000000000000000600052602160045260246000fd5b02179055506020820151816001015560408201518160020160006101000a81548160ff021916908315150217905550905050600360009054906101000a900463ffffffff1663ffffffff169550505050505092915050565b6000806002735FbDB2315678afecb367f032d93F642f64180aa3635edb2fb3426040518263ffffffff1660e01b8152600401611f75919061279e565b60206040518083038186803b158015611f8d57600080fd5b505af4158015611fa1573d6000803e3d6000fd5b505050506040513d601f19601f82011682018060405250810190611fc591906123d6565b735FbDB2315678afecb367f032d93F642f64180aa36382c947b7866040518263ffffffff1660e01b8152600401611ffc91906126b6565b60206040518083038186803b15801561201457600080fd5b505af4158015612028573d6000803e3d6000fd5b505050506040513d601f19601f8201168201806040525081019061204c91906123d6565b735FbDB2315678afecb367f032d93F642f64180aa36382c947b7886040518263ffffffff1660e01b815260040161208391906126b6565b60206040518083038186803b15801561209b57600080fd5b505af41580156120af573d6000803e3d6000fd5b505050506040513d601f19601f820116820180604052508101906120d391906123d6565b18186040516020016120e59190612684565b604051602081830303815290604052604051612101919061269f565b602060405180830381855afa15801561211e573d6000803e3d6000fd5b5050506040513d601f19601f8201168201806040525081019061214191906123d6565b9050600060028260001c6121559190612aa6565b141561216557600191505061216b565b60009150505b92915050565b508054600082559060005260206000209081019061218f9190612365565b50565b60405180606001604052806121a5612271565b8152602001600060028111156121e4577f4e487b7100000000000000000000000000000000000000000000000000000000600052602160045260246000fd5b81526020016000151581525090565b604051806060016040528060006002811115612238577f4e487b7100000000000000000000000000000000000000000000000000000000600052602160045260246000fd5b8152602001600081526020016000151581525090565b604051806101000160405280600890602082028036833780820191505090505090565b60405180612d20016040528061016990602082028036833780820191505090505090565b82610169601f016020900481019282156123545791602002820160005b8382111561232557835183826101000a81548160ff02191690836002811115612304577f4e487b7100000000000000000000000000000000000000000000000000000000600052602160045260246000fd5b021790555092602001926001016020816000010492830192600103026122b2565b80156123525782816101000a81549060ff0219169055600101602081600001049283019260010302612325565b505b5090506123619190612365565b5090565b5b8082111561237e576000816000905550600101612366565b5090565b60008135905061239181612b78565b92915050565b6000815190506123a681612b8f565b92915050565b6000813590506123bb81612ba6565b92915050565b6000813590506123d081612bbd565b92915050565b6000602082840312156123e857600080fd5b60006123f684828501612397565b91505092915050565b60006020828403121561241157600080fd5b600061241f848285016123ac565b91505092915050565b60008060006060848603121561243d57600080fd5b600061244b868287016123c1565b935050602061245c868287016123c1565b925050604061246d86828701612382565b9150509250925092565b600061248383836125c1565b60208301905092915050565b61249881612963565b82525050565b6124a781612963565b82525050565b6124b6816127c3565b6124c081846127e7565b92506124cb826127b9565b8060005b838110156124fc5781516124e38782612477565b96506124ee836127da565b9250506001810190506124cf565b505050505050565b61250d816127c3565b61251781846127f2565b9250612522826127b9565b8060005b8381101561255357815161253a8782612477565b9650612545836127da565b925050600181019050612526565b505050505050565b61256481612975565b82525050565b61257381612975565b82525050565b61258a61258582612981565b612a9c565b82525050565b600061259b826127cf565b6125a581856127fd565b93506125b5818560208601612a12565b80840191505092915050565b6125ca81612a00565b82525050565b6125d981612a00565b82525050565b612d60820160008201516125f660008501826124ad565b50602082015161260a612d208501826125c1565b50604082015161261e612d4085018261255b565b50505050565b60608201600082015161263a60008501826125c1565b50602082015161264d6020850182612666565b506040820151612660604085018261255b565b50505050565b61266f816129d9565b82525050565b61267e816129d9565b82525050565b60006126908284612579565b60208201915081905092915050565b60006126ab8284612590565b915081905092915050565b60006020820190506126cb600083018461249e565b92915050565b60006020820190506126e6600083018461248f565b92915050565b6000604082019050612701600083018561248f565b61270e602083018461248f565b9392505050565b6000612d208201905061272b6000830184612504565b92915050565b6000602082019050612746600083018461256a565b92915050565b600060208201905061276160008301846125d0565b92915050565b6000612d608201905061277d60008301846125df565b92915050565b60006060820190506127986000830184612624565b92915050565b60006020820190506127b36000830184612675565b92915050565b6000819050919050565b60006101699050919050565b600081519050919050565b6000602082019050919050565b600081905092915050565b600081905092915050565b600081905092915050565b60006128138261299e565b915061281e8361299e565b925081607f0383136000831215161561283a57612839612ad7565b5b817fffffffffffffffffffffffffffffffffffffffffffffffffffffffffffffff8003831260008312161561287257612871612ad7565b5b828201905092915050565b6000612888826129ab565b9150612893836129ab565b92508261ffff038211156128aa576128a9612ad7565b5b828201905092915050565b60006128c0826129f3565b91506128cb836129f3565b92508260ff038211156128e1576128e0612ad7565b5b828201905092915050565b60006128f7826129ab565b9150612902836129ab565b92508161ffff048311821515161561291d5761291c612ad7565b5b828202905092915050565b6000612933826129f3565b915061293e836129f3565b92508160ff048311821515161561295857612957612ad7565b5b828202905092915050565b600061296e826129b9565b9050919050565b60008115159050919050565b6000819050919050565b600081905061299982612b64565b919050565b60008160000b9050919050565b600061ffff82169050919050565b600073ffffffffffffffffffffffffffffffffffffffff82169050919050565b6000819050919050565b600063ffffffff82169050919050565b600060ff82169050919050565b6000612a0b8261298b565b9050919050565b60005b83811015612a30578082015181840152602081019050612a15565b83811115612a3f576000848401525b50505050565b6000612a50826129e3565b915063ffffffff821415612a6757612a66612ad7565b5b600182019050919050565b6000612a7d826129f3565b915060ff821415612a9157612a90612ad7565b5b600182019050919050565b6000819050919050565b6000612ab1826129d9565b9150612abc836129d9565b925082612acc57612acb612b06565b5b828206905092915050565b7f4e487b7100000000000000000000000000000000000000000000000000000000600052601160045260246000fd5b7f4e487b7100000000000000000000000000000000000000000000000000000000600052601260045260246000fd5b7f4e487b7100000000000000000000000000000000000000000000000000000000600052602160045260246000fd5b60038110612b7557612b74612b35565b5b50565b612b8181612975565b8114612b8c57600080fd5b50565b612b9881612981565b8114612ba357600080fd5b50565b612baf816129d9565b8114612bba57600080fd5b50565b612bc6816129f3565b8114612bd157600080fd5b5056fea264697066735822122024e5c9252ce5d0c726a8570a031ebc5e83df3a4ae4dbb0a8687a50ae302cb4c764736f6c63430008040033",
  "deployedBytecode": "0x608060405234801561001057600080fd5b50600436106100815760003560e01c8063929ce1e71161005b578063929ce1e7146100ee578063947d9de61461011e578063b40aea9c1461013c578063f27f91f41461015857610082565b806303a504a51461008457806317d537ab146100b457806356f39089146100be57610082565b5b005b61009e600480360381019061009991906123ff565b610188565b6040516100ab919061274c565b60405180910390f35b6100bc6101b5565b005b6100d860048036038101906100d391906123ff565b610414565b6040516100e59190612731565b60405180910390f35b610108600480360381019061010391906123ff565b610441565b6040516101159190612767565b60405180910390f35b6101266105b2565b6040516101339190612783565b60405180910390f35b61015660048036038101906101519190612428565b6106b5565b005b610172600480360381019061016d91906123ff565b611a77565b60405161017f9190612715565b60405180910390f35b600060016000838152602001908152602001600020600c0160009054906101000a900460ff169050919050565b60008080548060200260200160405190810160405280929190818152602001828054801561023857602002820191906000526020600020905b8160009054906101000a900473ffffffffffffffffffffffffffffffffffffffff1673ffffffffffffffffffffffffffffffffffffffff16815260200190600101908083116101ee575b505050505090506000815114156102b1576000339080600181540180825580915050600190039060005260206000200160009091909190916101000a81548173ffffffffffffffffffffffffffffffffffffffff021916908373ffffffffffffffffffffffffffffffffffffffff160217905550610410565b60018151141561040f573373ffffffffffffffffffffffffffffffffffffffff168160008151811061030c577f4e487b7100000000000000000000000000000000000000000000000000000000600052603260045260246000fd5b602002602001015173ffffffffffffffffffffffffffffffffffffffff1614156103365750610412565b600061038382600081518110610375577f4e487b7100000000000000000000000000000000000000000000000000000000600052603260045260246000fd5b602002602001015133611b35565b9050807fc8180a8ee09fc569927768d3d1f03623b0a7285e443513d6085410c1a36436a3836000815181106103e1577f4e487b7100000000000000000000000000000000000000000000000000000000600052603260045260246000fd5b6020026020010151336040516103f89291906126ec565b60405180910390a260008061040d9190612171565b505b5b505b565b600060016000838152602001908152602001600020600c0160019054906101000a900460ff169050919050565b610449612192565b60016000838152602001908152602001600020604051806060016040529081600082016101698060200260405190810160405280929190826101698015610500576020028201916000905b82829054906101000a900460ff1660028111156104da577f4e487b7100000000000000000000000000000000000000000000000000000000600052602160045260246000fd5b815260200190600101906020826000010492830192600103820291508084116104945790505b50505050508152602001600c820160009054906101000a900460ff166002811115610554577f4e487b7100000000000000000000000000000000000000000000000000000000600052602160045260246000fd5b600281111561058c577f4e487b7100000000000000000000000000000000000000000000000000000000600052602160045260246000fd5b8152602001600c820160019054906101000a900460ff1615151515815250509050919050565b6105ba6121f3565b600260003373ffffffffffffffffffffffffffffffffffffffff1673ffffffffffffffffffffffffffffffffffffffff1681526020019081526020016000206040518060600160405290816000820160009054906101000a900460ff16600281111561064f577f4e487b7100000000000000000000000000000000000000000000000000000000600052602160045260246000fd5b6002811115610687577f4e487b7100000000000000000000000000000000000000000000000000000000600052602160045260246000fd5b8152602001600182015481526020016002820160009054906101000a900460ff161515151581525050905090565b6000600260003373ffffffffffffffffffffffffffffffffffffffff1673ffffffffffffffffffffffffffffffffffffffff1681526020019081526020016000206040518060600160405290816000820160009054906101000a900460ff16600281111561074c577f4e487b7100000000000000000000000000000000000000000000000000000000600052602160045260246000fd5b6002811115610784577f4e487b7100000000000000000000000000000000000000000000000000000000600052602160045260246000fd5b8152602001600182015481526020016002820160009054906101000a900460ff16151515158152505090506000816020015114156107ee576040517f0e9a606400000000000000000000000000000000000000000000000000000000815260040160405180910390fd5b600060016000836020015181526020019081526020016000206040518060600160405290816000820161016980602002604051908101604052809291908261016980156108ab576020028201916000905b82829054906101000a900460ff166002811115610885577f4e487b7100000000000000000000000000000000000000000000000000000000600052602160045260246000fd5b8152602001906001019060208260000104928301926001038202915080841161083f5790505b50505050508152602001600c820160009054906101000a900460ff1660028111156108ff577f4e487b7100000000000000000000000000000000000000000000000000000000600052602160045260246000fd5b6002811115610937577f4e487b7100000000000000000000000000000000000000000000000000000000600052602160045260246000fd5b8152602001600c820160019054906101000a900460ff1615151515815250509050806040015115610994576040517f52c9b99c00000000000000000000000000000000000000000000000000000000815260040160405180910390fd5b816000015160028111156109d1577f4e487b7100000000000000000000000000000000000000000000000000000000600052602160045260246000fd5b81602001516002811115610a0e577f4e487b7100000000000000000000000000000000000000000000000000000000600052602160045260246000fd5b14610a45576040517f34cc6b6600000000000000000000000000000000000000000000000000000000815260040160405180910390fd5b60008560ff161080610a5b575060138560ff1610155b80610a78575060008460ff161080610a77575060138460ff1610155b5b80610b50575060006002811115610ab8577f4e487b7100000000000000000000000000000000000000000000000000000000600052602160045260246000fd5b8160000151601386610aca9190612928565b87610ad591906128b5565b60ff166101698110610b10577f4e487b7100000000000000000000000000000000000000000000000000000000600052603260045260246000fd5b60200201516002811115610b4d577f4e487b7100000000000000000000000000000000000000000000000000000000600052602160045260246000fd5b14155b15610b87576040517f33984b1d00000000000000000000000000000000000000000000000000000000815260040160405180910390fd5b81600001516001600084602001518152602001908152602001600020600001601386610bb39190612928565b87610bbe91906128b5565b60ff166101698110610bf9577f4e487b7100000000000000000000000000000000000000000000000000000000600052603260045260246000fd5b602091828204019190066101000a81548160ff02191690836002811115610c49577f4e487b7100000000000000000000000000000000000000000000000000000000600052602160045260246000fd5b0217905550600280811115610c87577f4e487b7100000000000000000000000000000000000000000000000000000000600052602160045260246000fd5b82600001516002811115610cc4577f4e487b7100000000000000000000000000000000000000000000000000000000600052602160045260246000fd5b14610cd0576002610cd3565b60015b6001600084602001518152602001908152602001600020600c0160006101000a81548160ff02191690836002811115610d35577f4e487b7100000000000000000000000000000000000000000000000000000000600052602160045260246000fd5b021790555081602001517f453d704a20a3df7c9ae4cff3c0661ec7a0cd8494f38d14d9506ae7a402957fbd60405160405180910390a28215611a7057610d7961224e565b6000604051806101000160405280604051806080016040528060405180604001604052806000800b60000b8152602001600160000b60000b815250815260200160405180604001604052806000800b60000b8152602001600260000b60000b815250815260200160405180604001604052806000800b60000b8152602001600360000b60000b815250815260200160405180604001604052806000800b60000b8152602001600460000b60000b815250815250815260200160405180608001604052806040518060400160405280600160000b60000b8152602001600160000b60000b81525081526020016040518060400160405280600260000b60000b8152602001600260000b60000b81525081526020016040518060400160405280600360000b60000b8152602001600360000b60000b81525081526020016040518060400160405280600460000b60000b8152602001600460000b60000b815250815250815260200160405180608001604052806040518060400160405280600160000b60000b81526020016000800b60000b81525081526020016040518060400160405280600260000b60000b81526020016000800b60000b81525081526020016040518060400160405280600360000b60000b81526020016000800b60000b81525081526020016040518060400160405280600460000b60000b81526020016000800b60000b815250815250815260200160405180608001604052806040518060400160405280600160000b60000b81526020017fffffffffffffffffffffffffffffffffffffffffffffffffffffffffffffffff60000b60000b81525081526020016040518060400160405280600260000b60000b81526020017ffffffffffffffffffffffffffffffffffffffffffffffffffffffffffffffffe60000b60000b81525081526020016040518060400160405280600360000b60000b81526020017ffffffffffffffffffffffffffffffffffffffffffffffffffffffffffffffffd60000b60000b81525081526020016040518060400160405280600460000b60000b81526020017ffffffffffffffffffffffffffffffffffffffffffffffffffffffffffffffffc60000b60000b8152508152508152602001604051806080016040528060405180604001604052806000800b60000b81526020017fffffffffffffffffffffffffffffffffffffffffffffffffffffffffffffffff60000b60000b815250815260200160405180604001604052806000800b60000b81526020017ffffffffffffffffffffffffffffffffffffffffffffffffffffffffffffffffe60000b60000b815250815260200160405180604001604052806000800b60000b81526020017ffffffffffffffffffffffffffffffffffffffffffffffffffffffffffffffffd60000b60000b815250815260200160405180604001604052806000800b60000b81526020017ffffffffffffffffffffffffffffffffffffffffffffffffffffffffffffffffc60000b60000b8152508152508152602001604051806080016040528060405180604001604052807fffffffffffffffffffffffffffffffffffffffffffffffffffffffffffffffff60000b60000b81526020017fffffffffffffffffffffffffffffffffffffffffffffffffffffffffffffffff60000b60000b815250815260200160405180604001604052807ffffffffffffffffffffffffffffffffffffffffffffffffffffffffffffffffe60000b60000b81526020017ffffffffffffffffffffffffffffffffffffffffffffffffffffffffffffffffe60000b60000b815250815260200160405180604001604052807ffffffffffffffffffffffffffffffffffffffffffffffffffffffffffffffffd60000b60000b81526020017ffffffffffffffffffffffffffffffffffffffffffffffffffffffffffffffffd60000b60000b815250815260200160405180604001604052807ffffffffffffffffffffffffffffffffffffffffffffffffffffffffffffffffc60000b60000b81526020017ffffffffffffffffffffffffffffffffffffffffffffffffffffffffffffffffc60000b60000b8152508152508152602001604051806080016040528060405180604001604052807fffffffffffffffffffffffffffffffffffffffffffffffffffffffffffffffff60000b60000b81526020016000800b60000b815250815260200160405180604001604052807ffffffffffffffffffffffffffffffffffffffffffffffffffffffffffffffffe60000b60000b81526020016000800b60000b815250815260200160405180604001604052807ffffffffffffffffffffffffffffffffffffffffffffffffffffffffffffffffd60000b60000b81526020016000800b60000b815250815260200160405180604001604052807ffffffffffffffffffffffffffffffffffffffffffffffffffffffffffffffffc60000b60000b81526020016000800b60000b8152508152508152602001604051806080016040528060405180604001604052807fffffffffffffffffffffffffffffffffffffffffffffffffffffffffffffffff60000b60000b8152602001600160000b60000b815250815260200160405180604001604052807ffffffffffffffffffffffffffffffffffffffffffffffffffffffffffffffffe60000b60000b8152602001600260000b60000b815250815260200160405180604001604052807ffffffffffffffffffffffffffffffffffffffffffffffffffffffffffffffffd60000b60000b8152602001600360000b60000b815250815260200160405180604001604052807ffffffffffffffffffffffffffffffffffffffffffffffffffffffffffffffffc60000b60000b8152602001600460000b60000b815250815250815250905060005b60088160ff1610156119345760005b60048160ff161015611920576000838360ff166008811061162b577f4e487b7100000000000000000000000000000000000000000000000000000000600052603260045260246000fd5b60200201518260ff166004811061166b577f4e487b7100000000000000000000000000000000000000000000000000000000600052603260045260246000fd5b60200201516000600281106116a9577f4e487b7100000000000000000000000000000000000000000000000000000000600052603260045260246000fd5b60200201518a6116b99190612808565b90506000848460ff16600881106116f9577f4e487b7100000000000000000000000000000000000000000000000000000000600052603260045260246000fd5b60200201518360ff1660048110611739577f4e487b7100000000000000000000000000000000000000000000000000000000600052603260045260246000fd5b6020020151600160028110611777577f4e487b7100000000000000000000000000000000000000000000000000000000600052603260045260246000fd5b60200201518a6117879190612808565b905060008260000b128061179f575060138260000b12155b806117ad575060008160000b125b806117bc575060138160000b12155b156117c8575050611920565b87600001516002811115611805577f4e487b7100000000000000000000000000000000000000000000000000000000600052602160045260246000fd5b87600001518260ff16601361181a91906128ec565b8460ff16611828919061287d565b61ffff166101698110611864577f4e487b7100000000000000000000000000000000000000000000000000000000600052603260045260246000fd5b602002015160028111156118a1577f4e487b7100000000000000000000000000000000000000000000000000000000600052602160045260246000fd5b141561190457858460ff16600881106118e3577f4e487b7100000000000000000000000000000000000000000000000000000000600052603260045260246000fd5b6020020180518091906118f590612a72565b60ff1660ff168152505061190b565b5050611920565b5050808061191890612a72565b9150506115e1565b50808061192c90612a72565b9150506115d2565b5060005b60048160ff161015611a6c5760048360048361195491906128b5565b60ff166008811061198e577f4e487b7100000000000000000000000000000000000000000000000000000000600052603260045260246000fd5b6020020151848360ff16600881106119cf577f4e487b7100000000000000000000000000000000000000000000000000000000600052603260045260246000fd5b60200201516119de91906128b5565b60ff1610611a5957600180600087602001518152602001908152602001600020600c0160016101000a81548160ff02191690831515021790555084602001517f668ce4ca171dee87d4d9d2b5d3dc31963fe7fbe50b982064dddb0fb9d56aee8b33604051611a4c91906126d1565b60405180910390a2611a6c565b8080611a6490612a72565b915050611938565b5050505b5050505050565b611a7f612271565b600160008381526020019081526020016000206000016101698060200260405190810160405280929190826101698015611b29576020028201916000905b82829054906101000a900460ff166002811115611b03577f4e487b7100000000000000000000000000000000000000000000000000000000600052602160045260246000fd5b81526020019060010190602082600001049283019260010382029150808411611abd5790505b50505050509050919050565b6000611b3f612271565b60006040518060600160405280838152602001600280811115611b8b577f4e487b7100000000000000000000000000000000000000000000000000000000600052602160045260246000fd5b815260200160001515815250905080600160006003600081819054906101000a900463ffffffff16611bbc90612a45565b91906101000a81548163ffffffff021916908363ffffffff160217905563ffffffff16815260200190815260200160002060008201518160000190610169611c05929190612295565b50602082015181600c0160006101000a81548160ff02191690836002811115611c57577f4e487b7100000000000000000000000000000000000000000000000000000000600052602160045260246000fd5b0217905550604082015181600c0160016101000a81548160ff0219169083151502179055509050506000611c8b8686611f39565b9050600081611c9b576001611c9e565b60025b9050600082611cae576002611cb1565b60015b90506040518060600160405280836002811115611cf7577f4e487b7100000000000000000000000000000000000000000000000000000000600052602160045260246000fd5b8152602001600360009054906101000a900463ffffffff1663ffffffff16815260200160011515815250600260008a73ffffffffffffffffffffffffffffffffffffffff1673ffffffffffffffffffffffffffffffffffffffff16815260200190815260200160002060008201518160000160006101000a81548160ff02191690836002811115611db1577f4e487b7100000000000000000000000000000000000000000000000000000000600052602160045260246000fd5b02179055506020820151816001015560408201518160020160006101000a81548160ff0219169083151502179055509050506040518060600160405280826002811115611e27577f4e487b7100000000000000000000000000000000000000000000000000000000600052602160045260246000fd5b8152602001600360009054906101000a900463ffffffff1663ffffffff16815260200160011515815250600260008973ffffffffffffffffffffffffffffffffffffffff1673ffffffffffffffffffffffffffffffffffffffff16815260200190815260200160002060008201518160000160006101000a81548160ff02191690836002811115611ee1577f4e487b7100000000000000000000000000000000000000000000000000000000600052602160045260246000fd5b02179055506020820151816001015560408201518160020160006101000a81548160ff021916908315150217905550905050600360009054906101000a900463ffffffff1663ffffffff169550505050505092915050565b600080600273__$a74ec4f9c45ea3e03fb5242c6921c0f692$__635edb2fb3426040518263ffffffff1660e01b8152600401611f75919061279e565b60206040518083038186803b158015611f8d57600080fd5b505af4158015611fa1573d6000803e3d6000fd5b505050506040513d601f19601f82011682018060405250810190611fc591906123d6565b73__$a74ec4f9c45ea3e03fb5242c6921c0f692$__6382c947b7866040518263ffffffff1660e01b8152600401611ffc91906126b6565b60206040518083038186803b15801561201457600080fd5b505af4158015612028573d6000803e3d6000fd5b505050506040513d601f19601f8201168201806040525081019061204c91906123d6565b73__$a74ec4f9c45ea3e03fb5242c6921c0f692$__6382c947b7886040518263ffffffff1660e01b815260040161208391906126b6565b60206040518083038186803b15801561209b57600080fd5b505af41580156120af573d6000803e3d6000fd5b505050506040513d601f19601f820116820180604052508101906120d391906123d6565b18186040516020016120e59190612684565b604051602081830303815290604052604051612101919061269f565b602060405180830381855afa15801561211e573d6000803e3d6000fd5b5050506040513d601f19601f8201168201806040525081019061214191906123d6565b9050600060028260001c6121559190612aa6565b141561216557600191505061216b565b60009150505b92915050565b508054600082559060005260206000209081019061218f9190612365565b50565b60405180606001604052806121a5612271565b8152602001600060028111156121e4577f4e487b7100000000000000000000000000000000000000000000000000000000600052602160045260246000fd5b81526020016000151581525090565b604051806060016040528060006002811115612238577f4e487b7100000000000000000000000000000000000000000000000000000000600052602160045260246000fd5b8152602001600081526020016000151581525090565b604051806101000160405280600890602082028036833780820191505090505090565b60405180612d20016040528061016990602082028036833780820191505090505090565b82610169601f016020900481019282156123545791602002820160005b8382111561232557835183826101000a81548160ff02191690836002811115612304577f4e487b7100000000000000000000000000000000000000000000000000000000600052602160045260246000fd5b021790555092602001926001016020816000010492830192600103026122b2565b80156123525782816101000a81549060ff0219169055600101602081600001049283019260010302612325565b505b5090506123619190612365565b5090565b5b8082111561237e576000816000905550600101612366565b5090565b60008135905061239181612b78565b92915050565b6000815190506123a681612b8f565b92915050565b6000813590506123bb81612ba6565b92915050565b6000813590506123d081612bbd565b92915050565b6000602082840312156123e857600080fd5b60006123f684828501612397565b91505092915050565b60006020828403121561241157600080fd5b600061241f848285016123ac565b91505092915050565b60008060006060848603121561243d57600080fd5b600061244b868287016123c1565b935050602061245c868287016123c1565b925050604061246d86828701612382565b9150509250925092565b600061248383836125c1565b60208301905092915050565b61249881612963565b82525050565b6124a781612963565b82525050565b6124b6816127c3565b6124c081846127e7565b92506124cb826127b9565b8060005b838110156124fc5781516124e38782612477565b96506124ee836127da565b9250506001810190506124cf565b505050505050565b61250d816127c3565b61251781846127f2565b9250612522826127b9565b8060005b8381101561255357815161253a8782612477565b9650612545836127da565b925050600181019050612526565b505050505050565b61256481612975565b82525050565b61257381612975565b82525050565b61258a61258582612981565b612a9c565b82525050565b600061259b826127cf565b6125a581856127fd565b93506125b5818560208601612a12565b80840191505092915050565b6125ca81612a00565b82525050565b6125d981612a00565b82525050565b612d60820160008201516125f660008501826124ad565b50602082015161260a612d208501826125c1565b50604082015161261e612d4085018261255b565b50505050565b60608201600082015161263a60008501826125c1565b50602082015161264d6020850182612666565b506040820151612660604085018261255b565b50505050565b61266f816129d9565b82525050565b61267e816129d9565b82525050565b60006126908284612579565b60208201915081905092915050565b60006126ab8284612590565b915081905092915050565b60006020820190506126cb600083018461249e565b92915050565b60006020820190506126e6600083018461248f565b92915050565b6000604082019050612701600083018561248f565b61270e602083018461248f565b9392505050565b6000612d208201905061272b6000830184612504565b92915050565b6000602082019050612746600083018461256a565b92915050565b600060208201905061276160008301846125d0565b92915050565b6000612d608201905061277d60008301846125df565b92915050565b60006060820190506127986000830184612624565b92915050565b60006020820190506127b36000830184612675565b92915050565b6000819050919050565b60006101699050919050565b600081519050919050565b6000602082019050919050565b600081905092915050565b600081905092915050565b600081905092915050565b60006128138261299e565b915061281e8361299e565b925081607f0383136000831215161561283a57612839612ad7565b5b817fffffffffffffffffffffffffffffffffffffffffffffffffffffffffffffff8003831260008312161561287257612871612ad7565b5b828201905092915050565b6000612888826129ab565b9150612893836129ab565b92508261ffff038211156128aa576128a9612ad7565b5b828201905092915050565b60006128c0826129f3565b91506128cb836129f3565b92508260ff038211156128e1576128e0612ad7565b5b828201905092915050565b60006128f7826129ab565b9150612902836129ab565b92508161ffff048311821515161561291d5761291c612ad7565b5b828202905092915050565b6000612933826129f3565b915061293e836129f3565b92508160ff048311821515161561295857612957612ad7565b5b828202905092915050565b600061296e826129b9565b9050919050565b60008115159050919050565b6000819050919050565b600081905061299982612b64565b919050565b60008160000b9050919050565b600061ffff82169050919050565b600073ffffffffffffffffffffffffffffffffffffffff82169050919050565b6000819050919050565b600063ffffffff82169050919050565b600060ff82169050919050565b6000612a0b8261298b565b9050919050565b60005b83811015612a30578082015181840152602081019050612a15565b83811115612a3f576000848401525b50505050565b6000612a50826129e3565b915063ffffffff821415612a6757612a66612ad7565b5b600182019050919050565b6000612a7d826129f3565b915060ff821415612a9157612a90612ad7565b5b600182019050919050565b6000819050919050565b6000612ab1826129d9565b9150612abc836129d9565b925082612acc57612acb612b06565b5b828206905092915050565b7f4e487b7100000000000000000000000000000000000000000000000000000000600052601160045260246000fd5b7f4e487b7100000000000000000000000000000000000000000000000000000000600052601260045260246000fd5b7f4e487b7100000000000000000000000000000000000000000000000000000000600052602160045260246000fd5b60038110612b7557612b74612b35565b5b50565b612b8181612975565b8114612b8c57600080fd5b50565b612b9881612981565b8114612ba357600080fd5b50565b612baf816129d9565b8114612bba57600080fd5b50565b612bc6816129f3565b8114612bd157600080fd5b5056fea264697066735822122024e5c9252ce5d0c726a8570a031ebc5e83df3a4ae4dbb0a8687a50ae302cb4c764736f6c63430008040033",
  "libraries": {
    "Convert": "0x5FbDB2315678afecb367f032d93F642f64180aa3"
  },
  "devdoc": {
    "kind": "dev",
    "methods": {},
    "version": 1
  },
  "userdoc": {
    "kind": "user",
    "methods": {},
    "version": 1
  },
  "storageLayout": {
    "storage": [
      {
        "astId": 137,
        "contract": "contracts/GoGame.sol:GoGame",
        "label": "matchQueue",
        "offset": 0,
        "slot": "0",
        "type": "t_array(t_address)dyn_storage"
      },
      {
        "astId": 142,
        "contract": "contracts/GoGame.sol:GoGame",
        "label": "matchIdToGS",
        "offset": 0,
        "slot": "1",
        "type": "t_mapping(t_uint256,t_struct(GameState)108_storage)"
      },
      {
        "astId": 147,
        "contract": "contracts/GoGame.sol:GoGame",
        "label": "addressToPS",
        "offset": 0,
        "slot": "2",
        "type": "t_mapping(t_address,t_struct(PlayerState)116_storage)"
      },
      {
        "astId": 149,
        "contract": "contracts/GoGame.sol:GoGame",
        "label": "matchCnt",
        "offset": 0,
        "slot": "3",
        "type": "t_uint32"
      }
    ],
    "types": {
      "t_address": {
        "encoding": "inplace",
        "label": "address",
        "numberOfBytes": "20"
      },
      "t_array(t_address)dyn_storage": {
        "base": "t_address",
        "encoding": "dynamic_array",
        "label": "address[]",
        "numberOfBytes": "32"
      },
      "t_array(t_enum(StoneType)95)361_storage": {
        "base": "t_enum(StoneType)95",
        "encoding": "inplace",
        "label": "enum GoGame.StoneType[361]",
        "numberOfBytes": "384"
      },
      "t_bool": {
        "encoding": "inplace",
        "label": "bool",
        "numberOfBytes": "1"
      },
      "t_enum(StoneType)95": {
        "encoding": "inplace",
        "label": "enum GoGame.StoneType",
        "numberOfBytes": "1"
      },
      "t_mapping(t_address,t_struct(PlayerState)116_storage)": {
        "encoding": "mapping",
        "key": "t_address",
        "label": "mapping(address => struct GoGame.PlayerState)",
        "numberOfBytes": "32",
        "value": "t_struct(PlayerState)116_storage"
      },
      "t_mapping(t_uint256,t_struct(GameState)108_storage)": {
        "encoding": "mapping",
        "key": "t_uint256",
        "label": "mapping(uint256 => struct GoGame.GameState)",
        "numberOfBytes": "32",
        "value": "t_struct(GameState)108_storage"
      },
      "t_struct(GameState)108_storage": {
        "encoding": "inplace",
        "label": "struct GoGame.GameState",
        "members": [
          {
            "astId": 102,
            "contract": "contracts/GoGame.sol:GoGame",
            "label": "boardState",
            "offset": 0,
            "slot": "0",
            "type": "t_array(t_enum(StoneType)95)361_storage"
          },
          {
            "astId": 105,
            "contract": "contracts/GoGame.sol:GoGame",
            "label": "turn",
            "offset": 0,
            "slot": "12",
            "type": "t_enum(StoneType)95"
          },
          {
            "astId": 107,
            "contract": "contracts/GoGame.sol:GoGame",
            "label": "isOver",
            "offset": 1,
            "slot": "12",
            "type": "t_bool"
          }
        ],
        "numberOfBytes": "416"
      },
      "t_struct(PlayerState)116_storage": {
        "encoding": "inplace",
        "label": "struct GoGame.PlayerState",
        "members": [
          {
            "astId": 111,
            "contract": "contracts/GoGame.sol:GoGame",
            "label": "stoneType",
            "offset": 0,
            "slot": "0",
            "type": "t_enum(StoneType)95"
          },
          {
            "astId": 113,
            "contract": "contracts/GoGame.sol:GoGame",
            "label": "matchId",
            "offset": 0,
            "slot": "1",
            "type": "t_uint256"
          },
          {
            "astId": 115,
            "contract": "contracts/GoGame.sol:GoGame",
            "label": "inGame",
            "offset": 0,
            "slot": "2",
            "type": "t_bool"
          }
        ],
        "numberOfBytes": "96"
      },
      "t_uint256": {
        "encoding": "inplace",
        "label": "uint256",
        "numberOfBytes": "32"
      },
      "t_uint32": {
        "encoding": "inplace",
        "label": "uint32",
        "numberOfBytes": "4"
      }
    }
  }
}